:1020000000800020719800005B9800005B98000041
:1020100000000000000000000000000000000000C0
:102020000000000000000000000000005B980000BD
:1020300000000000000000005B980000C598000050
:102040005B9800005B9800005B9800005B980000C4
:102050005B9800005B9800005B9800005D980000B2
:102060005B9800005B980000692B0000892B000042
:10207000A12B000059710000792B00005B98000033
:102080005B9800005B9800005B9800005B98000084
:10209000000000005B9800005B9800005B98000067
:1020A0005B9800005B9800005B9800005B98000064
:1020B0000000000010B5064C2378002B07D1054B1B
:1020C000002B02D0044800E000BF0123237010BDA4
:1020D0001802002000000000844D0100044B10B5E0
:1020E000002B03D00349044800E000BF10BDC046E8
:1020F000000000001C020020844D010010B50C8877
:102100006040C2B210015040C0B2C200030253404E
:102110002412634000115840088010BD37B50400F8
:102120006B469D1D637822781B021343080029002B
:102130002B80FFF7E3FF2B7823706B78637037BD3C
:10214000F0B50568D300DFB05B190400039100927D
:102150000360AB4202D2436801334360ED05AD0E2C
:10216000009B002B00D1CDE04023009F5B1B9F42D2
:1021700000D91F002600283670193A0003990DF087
:102180008DFB039BED19DB190393009BDB1B009375
:10219000402DE5D122000EAB6832F1781970B1788C
:1021A00059707178997031780436D9700433B2421D
:1021B000F3D10022A3680493E3680593236906938F
:1021C00063690793A3690893E3690993236A0A93F0
:1021D000636A0B931EAB0EA95158D1500432019182
:1021E000402AF8D1132707269A6B11251100E941DF
:1021F0008C4611006546F941920A69404A401D68C3
:10220000596A5868491952180100F14112258C4643
:102210000100E9416546C008694041405118196410
:102220004EAA04339A42DFD10027079B059E0D93E7
:10223000069B04989C460A9B08990293099B01936C
:102240000B9B0C930B230D000A00DD41053BDA418B
:102250006A400D001333DD412B4B55401EAADB595C
:10226000BA5804379A18AA18029B019D8B430D4057
:102270006B40D2180C9B0500D3180C930D23DD4145
:1022800002222B000500D54102005D401623DA41F1
:102290006346554062467340324003405340ED1858
:1022A0000C9A0D9BD3185219029D0C9565460D95FD
:1022B00080256D00AF421DD1049DAA18A260059A29
:1022C00000251018069AE0609619079A2661624464
:1022D0006261089AD318019AA3619446099B029AF5
:1022E00059180A9BE1616344944623620B9B634443
:1022F000636235E7B44606001000019A019102922C
:1023000019009FE75FB0F0BD302A01003F2277231C
:10231000F0B5066893B0F50815405D1B15406A4698
:10232000093313706B4604000F0047220021581C2C
:102330000DF0D0FA2B00320A6B44DA71320C9A712C
:1023400062681E72110A1A71D970110C120E5A703D
:102350002A009970360E0932694620005E71FFF737
:10236000EFFEE37A3B70A37A7B70637ABB70237ACB
:10237000FB70E37B3B71A37B7B7113B0F0BD10B5A9
:102380000DF08CFA10BD0000F0B504000220A9B0D9
:102390000593784B1D7B284017D11969002952D02D
:1023A00001270D783D424ED00D210291FD21A170F3
:1023B000A1180B310D78002D04D1013AD2B20139A8
:1023C000012AF7D10A21019107E0FE22A2700A003A
:1023D00000210027029106310191E270C8210122FB
:1023E0002172E271002F31D12771002262719A7936
:1023F000A2719A7901329A71A2780BAB1A70E278C5
:102400005A70A268A579120AD1B2002820D0012200
:10241000DA70C7329D701A7159716B460122152509
:102420009B88524204930EAB1A8006ABED18049BB6
:102430009E18B6B276190EA9AE4218D02878FFF7CA
:102440005DFE0135F7E702900700AFE72271CCE7A8
:10245000207998706079D971D87001201112587163
:102460001214C7301D71987119725A72D5E7250080
:102470000A8806ABDA800C35E6780395013E3E4BC0
:10248000B6B29E4209D0039B187806AB991DFFF7A0
:1024900035FE039B01330393F0E706AB991D0598C6
:1024A000FFF72CFE06ABDB88E2781912AB54E2781A
:1024B000AA1851702380002F53D02E4B1E69002E76
:1024C0004FD03378DB074CD5230020007278FF33E0
:1024D000E7781830DA75B268F36808A908920993AA
:1024E000FF3006220DF0DAF9B068F168012200230E
:1024F00012184B41B260F360002331000E930F932A
:102500001E4B103110931E4B202211931D4B0EA811
:1025100012931D4B13931D4B14931D4B15931D4B81
:1025200016931D4B1793FFF70BFE019A0BA90EA8EC
:10253000FFF706FE3A0029000EA8FFF701FEE91991
:1025400002220EA8FFF7FCFD21001731FF310EA873
:102550000722FFF7F5FD21001E31FF310EA8FFF71E
:10256000D5FEE078049B02301818029BC01829B0F1
:10257000F0BDC046D80F0020FFFF000067E6096AE3
:1025800085AE67BB72F36E3C3AF54FA57F520E5194
:102590008C68059BABD9831F19CDE05BF8B5CF786C
:1025A0008B780C0005000C313E00FE2B27D1037008
:1025B0004770A37900268370E379C370237A03718F
:1025C000A3681B0A4371E27806300DF067F9E078E2
:1025D0000630281805252388037023881B124370B2
:1025E000002E06D0210017310230FF3132000DF0ED
:1025F00055F9E8190330801980B2F8BD1600F7B21A
:10260000012E03D9721E885C0028F7D028002B7099
:102610006F7023793200AB7063790A30EB70A37965
:102620002B71E3796B71237AAB71A3681B0AEB7191
:10263000A3681B0C2B72A3681B0E6B720DF02EF996
:1026400030000A302818012526792E4002D008359E
:102650000D26C0E70925BEE70023F0B5B94FA5B0A8
:10266000029101923B70FB7805000F2B22D81800D5
:10267000B54C0AF053F8100010006700780088008D
:102680008E0095009C00A300B500C900DC00EC00A2
:102690002E012E016F01FD2D48D10223FB70002376
:1026A0000122E370A5703B7B93433B7301235B42A4
:1026B00023706370A34B1978012908D1A24A92793B
:1026C0005A711A89002A00D15A8101321A819E4A10
:1026D0000298D378019CC3709A4BD878E07018792F
:1026E0002071587901306071188920819878608153
:1026F000187B207300209870022907D11400FF3442
:10270000A07D617D00020143029801801878811E3E
:10271000012909D800209978187001319970FD2D90
:1027200000D1F4E10122DA7025B0F0BDFE2D00D019
:10273000F5E10223FB700023A570E3703A7B0133BF
:102740001343B2E70026E5703E7129002000FFF731
:10275000E5FC3B7BDB0703D526716671052300E0B2
:102760000323FB70A6E701222B002571934304D0BD
:10277000BB78FA709B18BB709CE729002000FFF71C
:10278000CDFC0423EDE7657129002000FFF7C6FCAE
:10279000E4E7A57129002000FFF7C0FC0623E0E76D
:1027A000E57129002000FFF7B9FC0723D9E725725E
:1027B00029002000FFF7B2FC0823D2E7002265724F
:1027C000A272E27229002000FFF7A8FC3B7BDB0726
:1027D00004D5E378002B38D00B23C2E70923C0E7E8
:1027E000A37A627A1B021A43E37A20001B04134384
:1027F0002A021343190A63721B0CA172E3722900A7
:10280000FFF78CFC0A23ACE7A37A627A1B021A4317
:10281000E37A20001B0413432A041343190A63724A
:102820001B0CA172E3722900FFF778FCD1E73B791A
:1028300029005A1C3A71454A2000D554FFF76EFC16
:102840003A79E3789A4200D034E70C2389E7A27AF8
:10285000637A12021343E27AE42612041A430C2329
:1028600000219C463A4867468B1901335B085F4359
:102870003F58BA4224D25E1E8E42F4D80C264E43F4
:1028800083599A4220D1861931792000FFF746FCFE
:1028900022782C4B95421AD00E22DA702A4AFF3247
:1028A0005575002E00D105E71879B279904200D312
:1028B00000E7264B121A0021C0180DF00BF8F9E6BC
:1028C0001900BA42DAD9D7E700263100DDE70D2238
:1028D000E3E70E2B02D063789D4212D002233B70B7
:1028E0002300FF339D752379DB070CD50F23FB7085
:1028F000023B7B733B78022B00D110E100233B703D
:10290000D8E60123EBE73B69002B05D01B6B002BBE
:102910000CD13B78022B78D101220A4B0A49DA709C
:1029200024220298FF320CF0B9FFC3E6A17A627A42
:1029300009020A43E17A3800090411439847002844
:10294000EAD1E6E7D80F0020490B0020550B002004
:10295000302B01007B7BE21A0D32013BFF32DBB2F0
:10296000D5757B73002B00D0D9E03E69002E00D1D5
:10297000B1E031000A930B936A4B7A690C936A4B6E
:1029800000920D93694B20220E93694B10310F93E7
:10299000684B0AA81093684B1193684B1293684BCD
:1029A0001393FFF7CDFB0A2266490AA8FFF7C8FB7D
:1029B000E27865490AA8FFF7C3FB022263490AA827
:1029C000FFF7BEFB072262490AA8FFF7B9FB04A97B
:1029D0000AA8FFF79BFC06225E4904A80CF04FFFF3
:1029E000071E16D0022334365B48337003691B6B15
:1029F000002B0AD0594CA17A627A09020A43E17A83
:102A0000090411439847002865D10322524B1A70DC
:102A100082E72300FF33DB7D00220393002350492C
:102A20000692079306A806320CF038FF009B002B95
:102A300015D01988237AE2799C46009B0233B9426B
:102A400010D05C78944206D19C78644503D11C7800
:102A50000398844242D00137BFB20933EFE73436DE
:102A60000323C1E70F2902D934360423BCE7002130
:102A7000069B079C3B48C0186141F3688B4203D812
:102A800005D1B368834202D934360523ACE7092364
:102A90007B430099CB18DA70304A127A1A716A4671
:102AA000127B9A707B1C0B8009207843009B0530B9
:102AB000181806222A490CF0F1FE079BF168069AC5
:102AC000994203D304D1B168914201D2B260F3605C
:102AD000012334363370204B012298E7092100226C
:102AE0000023794308920993009B05315918063257
:102AF00008A80CF0D3FE079A099B9A42D4D803D1B8
:102B0000069B089A9342CFD8343606236CE70221FD
:102B1000D97001235B42D0701370537004E639788A
:102B2000D5E5C04667E6096A85AE67BB72F36E3CC1
:102B30003AF54FA57F520E518C68059BABD9831F88
:102B400019CDE05B4B0B0020550B00205D0C0020E5
:102B50005F0C0020660C0020D80F0020490B0020DD
:102B6000600C0020808D5B0010B5024806F0AFFAC3
:102B700010BDC046C006002010B5024806F0A7FAF6
:102B800010BDC0463802002010B5034806F09FFA79
:102B90000122024B1A7010BD7C0400203502002077
:102BA00010B5034806F093FA0122024B1A7010BDCB
:102BB000040900203402002070B505240A4E3000BC
:102BC00005F0F8F8051E07D10A20013C06F0BEFE0C
:102BD000002CF3D1280070BD044806F0B7FE04496C
:102BE000300006F0FFFBF5E7E4140020B80B00000E
:102BF0008F29010070B505000C00044806F0F2FBB7
:102C00002800210006F0EEFB70BDC046E414002051
:102C100070B505000C00044806F0DAFB280021001E
:102C200006F0D6FB70BDC046E4140020F0B58BB0B2
:102C3000424904A806F031FD414D0A22297801A835
:102C400006F04AFD01A904A806F09BFD010007A8B3
:102C500006F063FD3B4F07A93800FFF7D9FF07A82F
:102C600006F0CCFC01A806F0C9FC04A806F0C6FCDE
:102C7000354C200002F0C4FE200002F0B1FF334BBF
:102C80001E78012E0CD10021200002F007FA00214D
:102C9000200003F04CF8200003F0BDFA04230EE0FE
:102CA000F31E012B11D80121200002F0F7F90021B9
:102CB000200003F03CF8200003F055FA03232B70AA
:102CC000200002F0BDFE0BB0F0BD0021022EEBD0C3
:102CD00001212000052E0AD102F0E0F90021200098
:102CE00003F025F8200003F00EFB2E70E8E70B2E12
:102CF000CBD002F0D3F90121200003F018F82B7893
:102D0000032B03D1200003F02EFAD9E7012B03D1C6
:102D1000200003F079F9D3E7002B03D1200003F062
:102D20003CF9CDE7062B03D1200003F0E5F9C7E716
:102D300007493800FFF75EFFC2E7C0469D29010042
:102D400004000020380200203C1000200500002074
:102D5000A429010070B505000B4C200002F050FEC4
:102D6000200002F0ADFE200002F06AFE642006F0B2
:102D7000EDFD064806F024FB280006F021FB2000AC
:102D800002F078FE70BDC0463C100020E414002024
:102D900030B5FF250400411800206D018C4210D091
:102DA00042BA207892B24240D3B21B115A4013B2B9
:102DB000120353401BB258012840584080B20134DE
:102DC000ECE730BD70B506000C00002C0ED03000D2
:102DD000E168FFF7F7FF6069A568002801D006F0F9
:102DE0002DFE200006F02AFE2C00EEE770BDD82351
:102DF00010B504005B00A930FF30E158FFF7E2FF97
:102E0000200010BD10B504000068002801D006F0B5
:102E100015FE200010BD0000F0B54724060099B053
:102E200002ABE41806F0F0FCA2490AA806F035FC53
:102E300031000AA806F0A5FC01000DA806F06DFC03
:102E40009D4D0DA92800FFF7E3FE0DA806F0D6FB67
:102E50000AA806F0D3FB240998493000240106F0A3
:102E60009DFC00280DD00122954B96491A70280030
:102E7000FFF7C0FEFFF7DAFE2800FFF76BFF19B07F
:102E8000F0BD9149300006F089FC002804D00222F0
:102E90008B4B8E491A70EAE78D49300006F07EFCB4
:102EA000002804D00322864B8A491A70DFE78A493A
:102EB000300006F073FC071E04D00422804B8749C3
:102EC0001A70D4E78649300006F068FC002803D069
:102ED0007B4B84491F70CAE78349300006F05EFCD3
:102EE000002804D00622814B81491A70BFE781492E
:102EF000300006F053FC002804D001227B4B7E49B1
:102F00001A70B4E77D49300006F048FC002804D070
:102F10000322764B7A491A70A9E77A49300006F005
:102F20003DFC002804D00222704B1A7076499EE7BF
:102F30007649300006F032FC002813D0744928008E
:102F400006F050FA734C7449200006F04BFA7349AE
:102F5000280006F047FA7249200006F043FA634B56
:102F60000B22E2E76F49300006F018FC002811D070
:102F70006749280006F036FA664C6749200006F0DB
:102F800031FA6649280006F02DFA6549200006F05E
:102F900029FA74E76449300006F000FC002807D0E5
:102FA0000622524B61491A702800FFF723FE63E79F
:102FB0005F49300006F0F2FB002804D008224B4B9A
:102FC0005C491A70F0E75C49300006F0E7FB002826
:102FD00004D00722454B59491A70E5E7584930009B
:102FE00006F0DCFB00280DD156490DA806F055FB74
:102FF0000DA9300006F0FCFB07000DA806F0FEFA54
:10300000002F04D00522394B4F491A702FE74F4942
:10301000300006F0C3FB002804D00A22334B4C4991
:103020001A70C1E74B49300006F0B8FB071E07D005
:103030000122494B49491A702C4B08321A70B3E7E8
:103040004749300006F0AAFB002806D04549280071
:10305000FFF7D0FD404B1F700EE74349300006F0EC
:103060009DFB002804D00922204B40491A709BE7A1
:103070003F49300006F092FB00280ED03D49280061
:10308000FFF7B8FD3C4C200002F0BAFC200002F033
:1030900017FD200002F0D4FCEEE63849300006F0BF
:1030A0007DFB00286CD02A000A21334802F020FE64
:1030B000E5E6C046CF25010038020020D9250100F1
:1030C00004000020DE250100FC250100052601008A
:1030D000272601002B260100482601005426010066
:1030E000792601007D2601009A26010005000020B6
:1030F000A3260100C5260100CD260100F12601000E
:10310000F92601001E270100262701005A27010089
:1031100064270100E41400205E2701007E270100DF
:1031200078270100922701009F270100A3270100B3
:10313000B8270100BC270100D1270100D6270100D4
:10314000EB270100F0270100F62701000828010005
:103150001228010029280100480B00202D28010019
:103160004C28010054280100752801007C2801002A
:103170008F280100952801003C100020A1280100A3
:10318000A949300006F00AFB002804D0A74B1B78A1
:10319000002B00D0F5E0A649300006F0FFFA002829
:1031A00000D16CE6A14B1B78002B00D167E6A1494A
:1031B000A14806F017F90525A04CA1492000FFF70A
:1031C00019FD200002F020F8002802D1013D002D59
:1031D000F2D19C492000FFF70DFD200002F014F809
:1031E000994E20003100FFF705FD200002F00CF899
:1031F000964D20002900FFF7FDFC200002F004F8A6
:10320000FA20800006F0A2FB052720008C49FFF77A
:10321000F1FC200001F0F8FF002802D1013F002F4F
:10322000F3D18B492000FFF7E5FC200001F0ECFF13
:1032300031002000FFF7DEFC200001F0E5FF29004F
:103240002000FFF7D7FC200001F0DEFFFA2080000D
:1032500006F07CFB052720007949FFF7CBFC200016
:1032600001F0D2FF002802D1013F002FF3D17949AC
:103270002000FFF7BFFC200001F0C6FF3100200056
:10328000FFF7B8FC200001F0BFFF29002000FFF786
:10329000B1FC200001F0B8FFFA20800006F056FBD8
:1032A000052720006649FFF7A5FC200001F0ACFFD0
:1032B000002802D1013F002FF3D167492000FFF71A
:1032C00099FC200001F0A0FF31002000FFF792FCE4
:1032D000200001F099FF29002000FFF78BFC20005F
:1032E00001F092FFFA20800006F030FB0527200055
:1032F0005349FFF77FFC200001F086FF002802D130
:10330000013F002FF3D155492000FFF773FC200047
:1033100001F07AFF31002000FFF76CFC200001F083
:1033200073FF29002000FFF765FC200001F06CFF0F
:10333000FA20800006F00AFB052720004049FFF72D
:1033400059FC200001F060FF002802D1013F002F4E
:10335000F3D143492000FFF74DFC200001F054FF5A
:1033600031002000FFF746FC200001F04DFF29004E
:103370002000FFF73FFC200001F046FFFA2080000C
:103380004EE038492C4806F02DF800230793364BC1
:103390000AAA0A93354B07A90D9320000DAB03F041
:1033A000B1FC334D280002F02BFB210004A803F0F0
:1033B00075F8049B210007A8DE6803F06FF8079BEF
:1033C00021001B680AA8039303F068F80A9B2100F8
:1033D0000DA85F6803F062F80D9B039A9B68311C8F
:1033E000009328003B1C02F085FB0DA8FFF70AFDA7
:1033F0000AA8FFF707FD07A8FFF704FD04A8FFF7D9
:1034000001FDE121012302224902280002F0BCFB58
:10341000280002F015FB280002F02CFBFA204000E7
:1034200006F094FA2BE5C046AB280100480B0020BB
:10343000B6280100E1280100E4140020040900205E
:10344000F9280100052901001529010021290100A1
:103450002D2901003D2901004D2901005D290100B0
:103460006D290100C3280100DB0F4940DB0FC9BFF4
:103470003C10002073B5012403250194009523001E
:1034800000221449144805F09BFD144E0194009548
:10349000300018231922124905F092FD019400947E
:1034A00008230D220F49104805F08AFD09230194D5
:1034B00000950A220D490E4805F082FD0D4C3100A1
:1034C000200001F0A7FA0C4A0C49200006F054FD38
:1034D00073BDC046DC140020380200207C040020AC
:1034E000C4140020BC140020C0060020CC1400200E
:1034F000040900203C10002000000020EF2D0000F7
:1035000010B5E12464022100164804F003FBE12118
:103510001548890205F068FC2100144805F064FC98
:103520002100134805F060FC2100124805F05CFC06
:103530000221182006F072FC0221192006F06EFC10
:103540000221082006F06AFC02210D2006F066FC2C
:1035500003210A2006F062FC0321092006F05EFC2C
:1035600010BDC046E4140020380200207C04002076
:10357000C006002004090020F0B50700714C0E00C1
:10358000A54406920021E82210A81D00E09C0CF042
:10359000A1F938680BF096FF00226B4B0BF04CF949
:1035A00009F0F2FA0E2304AAFF339B1801221A70C5
:1035B0000DAB04930CAB03930BAB0293634B644FC3
:1035C0000193644B0E900F9100933A1C624B634938
:1035D000634802F0C5FFE299624B00220968624825
:1035E00001F07AFD002800D19DE0B068F1680BF091
:1035F000EDFF1090306871680BF0E8FF069B1190AA
:103600001B6812932B6817936B681893AB6806932B
:103610001993236804AA1393636848AD1493A368AD
:103620001593E3681693E19B1C68586899684F4BA3
:103630001B9038933D931D93239328932C932F93A2
:103640003193329387235B009B18802252001A80AB
:1036500064231C911A942B7047AD2B780E2506938A
:10366000FF3504ABED182B780793109B119F9C46F8
:10367000129B58910893179B83A909930E9A0F9B4D
:103680004A924B9363464C93089B80224E93099B2E
:10369000189E53936B461B7E199D0B70FE2104AB45
:1036A000FF31C9186B461B7F52000B70FF2104AB22
:1036B0004900C918642357904D97549655955694D0
:1036C0000A8084AA137013A94FA81022FEF757FE90
:1036D0001DA959A85422FEF752FE32A96EA8542201
:1036E000FEF74DFE4AA9E92294A80CF0D7F8204B2A
:1036F00004AA9B184B221A704A3A5A700022E621FB
:103700009A7091A85B23E932FEF73EFE91A94AA880
:10371000FEF744FF4AA90200164805F017FEDB2316
:103720009B009D44F0BD8123DB051093124B119744
:103730001293FE239B0517938023DB0518930F4BF1
:1037400066E7C04694FCFFFF00005940000040417E
:103750000000A0400416F342E7FBC8419318F3426F
:103760004260C841E41400203C100020BD3786357B
:103770003D020000380200200000C0400000404030
:1037800070B54E4C0068A5440BF09CFE00224C4BDB
:103790000BF052F809F0F8F90D00A299494B0022FC
:1037A00009680600484801F097FCA09B00219C682E
:1037B000201C09F0A1F980231B06002800D174E029
:1037C000E0180BF0B1FE00223D4B0BF035F8002263
:1037D0003E4B0AF00BF909F099F96A466B46128CD8
:1037E000598BDB8B12041A436B46DC8D1B8E0E95B6
:1037F000374D1B040F95374D23431095364D0DACB7
:103800001195364D0D961295618335495226A18347
:1038100069460525891925830A8069460236891972
:10382000120C0A8069460122023689190A8069460B
:103830000025023689190D806946023689190A80E9
:103840006946023689190D806946023689190A804F
:103850006A466021521815806A4602315218138058
:103860006A4602311B0C521880B213806086210018
:10387000342256A80CF012F856221823FF326A445C
:103880001370557095701E21342253A8FEF77CFDED
:1038900053A92000FEF782FE21000200114805F026
:1038A00055FD9C239B009D4470BDE0180BF03CFE31
:1038B0000022034B0AF0C0FF8DE7C04690FDFFFFDA
:1038C00000005940E41400203C1000200094E14026
:1038D000C0D0010E80221F48CE040000010001006C
:1038E0000307000038020020F0B5434C0068A544EF
:1038F0000BF0E8FD0022414B0AF09EFF09F044F96D
:10390000A89B07009E6880231B06F01801910BF00E
:103910000BFE0022394B0AF08FFF04000D00301C13
:10392000002109F0E9F8002862D00022344B200081
:1039300029000AF05BF809F0E9F8019D11AB1A784B
:1039400002A902AB498F1C8F14957C25049B80B281
:1039500015932C4B139716932B4B17932B4B1893B4
:103960002B4B19931A932B4B1B932B4B1C932B4BC9
:103970001D932B4B1E931F93209302AB5B191C804E
:103980007E2402AB1B19198022AB1A70812302AA74
:103990009B1803221A70822302AA9B1807221A700E
:1039A000832302AA9B181870000A587013A9412299
:1039B0005CA80BF073FF662302AAFF339B18182242
:1039C000002452421A705C709C70593297233F2138
:1039D00059A8FEF7D9FC59A913A8FEF7DFFD13A9D2
:1039E0000200104805F0B2FCA3239B009D44F0BDEB
:1039F000200029009FE7C04674FDFFFF00005940EA
:103A00000094E140C0D0010E80221F48A4709D3F69
:103A10000AD7233CCDCCCC3DCDCCCCBDCDCC4C3D80
:103A2000BD37863538020020F0B50500434C0E0046
:103A3000A544002117000EA87022C09C0BF04AFF7D
:103A400028680BF03FFD00223D4B0AF0F5FE09F01F
:103A50009BF80BAB04930AAB039309AB0293394B6E
:103A6000394D0193394B0C900D9100932A1C384B22
:103A70003849394802F074FDC299384B0022096870
:103A8000374801F029FB002852D0B068F1680BF0EC
:103A90009DFD0E90306871680BF098FD3B680F90AB
:103AA000079321686068A26800240C9E0D9F109304
:103AB0002C4B2A962B9714931A931F932393269398
:103AC000289329AB1C700E9B0F9D9C466646109B4D
:103AD0001291119013922E932F9047AB3091319207
:103AE00014A932A854221C702C962D95FEF747FC81
:103AF0002AA9752274A80BF0D1FEC62302AAFF33AF
:103B00009B1866225C701A709C700F329E232021D5
:103B100071A8FEF739FC71A92AA8FEF73FFD2AA972
:103B20000200114805F012FCBB239B009D44F0BD30
:103B30008123DB050E930F950C4BB2E714FDFFFFBD
:103B400000005940000040410000A0400416F3422C
:103B5000E7FBC8419318F3424260C841E4140020D7
:103B60003C100020BD378635380200200000C040E0
:103B700070B506000024B2B0336830001B69A5B2EE
:103B80009847002809D0C82C35D0336830005B69CD
:103B900098476B46E0540134EEE7002D29D0052DFF
:103BA0001ED96B461B78432B1AD16B465B784F2B83
:103BB00016D16B469B784E2B12D16B46DB78462B89
:103BC0000ED16B461B79492B0AD16B465B79472B8B
:103BD00006D10922094B0A490A481A70FFF70AF868
:103BE000064B1B78072B04D12A006946064805F0CE
:103BF000ADFB32B070BD2500D3E7C0460500002004
:103C00007D290100380200207C040020F0B54A4CD8
:103C10000500A54405F06AFE6B4600260027A4AC0B
:103C20000022197E5B7EA0602000A496A597E2602A
:103C3000217463745EABC2C8C2C319000A60838872
:103C40005BA88B8076236F21FF336B4419705A7009
:103C50009A705F3922231232FEF796FB5BA915A8F2
:103C6000FEF79CFC354E020015A9300005F06EFBF6
:103C700005F036FE070005F033FEC01B632852D85E
:103C8000300005F0B9F80028F5DD300005F0C0FA85
:103C90000FAAC0B22100FEF7DFFC0028EBD0A3681A
:103CA0001B0A6F2BE7D1E3781C1C122B00D91224BE
:103CB00012220021E4B208A80BF00CFE2200A7A9F2
:103CC00008A80BF0EBFD002D25D01D4C1D49200050
:103CD00005F06CFB0A980B9908F074FF1A4A1B4B0D
:103CE0000AF0AAFD032502000B000095200005F054
:103CF00079FC1749200005F059FB0898099908F04C
:103D000061FF144A144B0AF097FD009502000B0066
:103D1000200005F067FC089E099F30003900EF2362
:103D20009B009D44F0BD00260027002DF5D00B49D7
:103D3000034805F057FBF0E744FCFFFF3802002082
:103D4000E41400207C250100FCA9F1D24D62503F13
:103D50008225010095D626E80B2E113E882501000C
:103D600010B505240020FFF751FF08430AD1643045
:103D7000013C05F0EBFD002CF4D10349034805F0AC
:103D800031FB10BD0249F9E7A7250100E41400202A
:103D9000BD25010010B5FFF7B3FBFEF70DFF0A4B81
:103DA0001870FFF7DDFF094C6421200001F0BAFF15
:103DB000FEF73CFF200001F05DFE642005F0C6FD2B
:103DC0000122034B1A7010BD381000203C10002057
:103DD00039100020F0B5D34EF1B0300005F00CF8EA
:103DE00000281ED0D04B1B78072B22D10024300096
:103DF000A5B205F001F8002808D0C82C13D0300077
:103E000005F006FA3EABE0540134F0E7002D08D08F
:103E1000C64B2A001B783EA9002B06D0C44803F0ED
:103E200099FF71B0F0BD2500F2E7C24805F08EFAA7
:103E3000F7E700220023309231933292339300232C
:103E40002DAC3621BC4815932D936360A36001F01F
:103E5000AFF800230A9313AB099335AB079327AB55
:103E6000069330AB049314AB02932AAB019321AEBB
:103E700024AB16AF15AD009312AA330010A9AE48BB
:103E800008970595039400F0E9FDAB4800F0E3FDC9
:103E90000D90012800D0A4E2A34B1B78012B35D153
:103EA000A64B1B78042B09D135AB009302970196E2
:103EB00023002A0030A912A8FFF75EFB0025129EFE
:103EC000290030009E4F34003A687B68801A99417F
:103ED00008F08EFE00229B4B08F0D4FDA842A0D033
:103EE000914B3C607D601B78092B00D174E230005F
:103EF0000BF0E8FA944A954B0AF09EFC0B00032164
:103F0000020000918A4805F06DFB8AE7032B0ED171
:103F10008A4B1B78032BD1D127AB009302970196D4
:103F200023002A0030A912A8FFF72AFCC6E7042BB9
:103F30000ED1824B1B78032BC0D127AB0093029785
:103F4000019623002A0030A912A8FFF7CDFCB5E79F
:103F5000022B0ED1794B1B78032BAFD127AB0093EB
:103F60000297019623002A0030A912A8FFF75CFDF2
:103F7000A4E7082B00D0EDE0704B1D78042D3CD158
:103F80000327129802970BF09DFA704B6E4A0AF0C5
:103F900053FC00220090019180213EA800F030FCEB
:103FA0000226072302000193802130AB00963EA831
:103FB00000F0C1FC159B0200802100973EA800F094
:103FC000B3FB230002000196009780213EA800F079
:103FD00093FC02000195009535AB80213EA800F0CE
:103FE0008BFC544C169923000122534801F074F8BD
:103FF00020003EA905F0F6F960E7032D2CD11298B8
:1040000002950BF05FFA514B4F4A0AF015FC002263
:104010000090019180213EA800F0F2FB02260723C8
:1040200002000193802130AB00963EA800F083FC93
:10403000159B0200802100953EA800F075FB23002F
:1040400002000196009580213EA800F055FC0196E3
:104050000200009527ABC0E7012D34D1032412984C
:1040600002940BF02FFA394B374A0AF0E5FB002295
:104070000090019180213EA800F0C2FB2D190200A2
:1040800033008021019500943EA800F035FC24AB5C
:1040900002008021019500943EA800F02DFC2AAB7F
:1040A00002008021019500943EA800F025FC022327
:1040B00002000193009427AB80213EA800F01CFC75
:1040C0003EA91C4896E7002D29D10324129802949A
:1040D0000BF0F8F91D4B1C4A0AF0AEFB2A000090C9
:1040E000019180213EA800F08BFB043502003300D3
:1040F0000195009480213EA800F0FEFB24AB020055
:104100000195009480213EA800F0F6FB01230200F7
:1041100000938021139B3EA800F006FBD0E70C49DA
:10412000034867E77C04002005000020480B0020BE
:10413000E4140020380200203C100020040000207D
:10414000001200200088C3402D431CEBE2361A3FCA
:10415000C4290100129F062B00D090E038000BF01C
:10416000B1F9AD4AAD4B0AF067FB08F0CFFC3F2236
:1041700004AB0D909B181F78013A04AB9B181E7876
:10418000013A04AB9B181B78013A0E9304AB9B18C1
:104190001B780F93A24B1B78012B32D13EACA14967
:1041A000383A20000BF07AFB21AA3FAB23CA23C385
:1041B00024A90C2242A80BF071FB38226B469B18F5
:1041C0001B780432A3776B469B181B782777E3771D
:1041D0000D9B667727AA469347AB23CA23C30123C7
:1041E000914A5B42202139A800F028FA34222100AC
:1041F00039A800F02CFA342221008C4805F0A6F8EA
:104200005CE68B49032B00D05BE73EAC854904227A
:1042100020000BF043FB21AA3FAB23CA23C324A9F0
:104220000C2242A80BF03AFB38226B469B181B78F5
:104230000432A3776B469B181B782777E3770D9B97
:10424000667727AA469347AB23CA23C330A908221F
:104250004AA80BF023FB159B2DAAA3634DAB23CAE1
:1042600023C30123704A5B42202139A800F0E6F9FC
:104270004C22210039A800F0EAF94C22BCE70B2BB4
:1042800000D01BE6664B1E78042E00D016E6EA200E
:1042900004AB70220021C0180BF01CFB654B3EAD37
:1042A0002B800123EB702B712F336B715433EB7127
:1042B0007E3B2B720D336B7238000BF003F95E4BB3
:1042C00000220AF0B9FA08F05FFC11AF3A0018902A
:1042D00019911699594800F043FF3098319908F028
:1042E00053FC1A901B913298339908F04DFC1C90A6
:1042F0001D91159808F028FCFE231E901F91F220B6
:104300009B0539933A933B934D4B0822179304AB8B
:10431000C01818A900F05AFBFA2004ABC0183200EC
:1043200013A900F053FBFE2004ABC018320014A9FF
:1043300000F04CFB04ABD81C0C222AA9FF3000F083
:1043400045FB872004AB4000C018102235A900F0BF
:104350003DFB8F2004AB40000C220021C0180BF065
:10436000B9FA952004AB4000C018320013A900F040
:104370002DFB97233A8804A95B005B181A801AA9C1
:10438000082250A800F022FB08221CA952A800F025
:104390001DFB08221EA954A800F018FB0C222100C6
:1043A00056A800F013FB0C2239A959A800F00EFB07
:1043B000320017A95CA800F009FB70212800FEF765
:1043C000E7FC5DAB020A1A70662304AAFF339B1850
:1043D00018707222290010E71A491448FEF70AFCE7
:1043E0001FE5164800F037FB022800D019E5164DEE
:1043F000164C2900200004F0D9FF21000F4800F0DE
:10440000A5FD0A4C2900200004F0D0FF21000B4834
:1044100000F09CFD05E5C0469A9999999999B93F94
:10442000040000202C2A0100B71DC104380200201E
:10443000F3290100FA360000000059403C1000202A
:10444000CDCC4C3D75280100222A0100E414002047
:10445000F0B55E4CD1B02378002B07D05C4B1B78B5
:10446000002B03D0FFF7B6FC00232370594D5A4CA4
:104470002B78002B0AD0594B59481A78052A33D18A
:104480000022210000F022FF00232B70554D280050
:1044900003F042FC00280AD0534B1B78002B29D094
:1044A0004E4B1B78072B25D12800FFF761FB20001E
:1044B00004F0A2FC002851D04C4E3378002B4DD094
:1044C000464D2B78062B21D02B780027072B5AD06E
:1044D0000A22210007A800F053FA07A8FEF79CFC67
:1044E00007A805F08BF839E00A3A53425A4140498F
:1044F000D2B2C7E70A22290007A800F041FA07A8AC
:10450000FEF78AFC07A805F079F8D0E7200004F050
:1045100073FC1F28D8DD200004F06EFC00281DD09D
:10452000200004F075FE01AAC0B207A9FEF794F8B6
:104530000028F0D000230422337001332B702D4B60
:104540002D4920001A70FEF755FB20002B49FEF77D
:1045500051FBFEF76BFB2000FEF7FCFB51B0F0BDFA
:10456000002EFBD0052E17D82B78072BF6D1320062
:1045700007A9234804F0EAFEF0E7200004F048FE13
:1045800007ABF85401372000BEB204F035FC002818
:10459000E6D0C82FF1D13E0007AB1A78432AE3D109
:1045A0005A784F2AE0D19A784E2ADDD1DA78462A15
:1045B000DAD11A79492AD7D15B79472BD4D13E3B3E
:1045C000104920002B70FEF715FBCDE735020020C7
:1045D000391000203402002038020020050000209D
:1045E00004090020E4140020480B002006000020ED
:1045F000C00600200400002054260100CD26010042
:104600007C0400207D2901000023016002724360C8
:10461000037503777047000010B50400D4220249E7
:10462000FFF7F2FF200010BD3012002010B5024845
:10463000FFF7F2FF10BDC046081200208360002380
:1046400001600731C9084260C36001617047F0B57D
:1046500001242600056885B06B1E9E4001920396DA
:104660000269019EAC40B21A0E008368013C0292BE
:10467000083D029A771A974210DA3778AF407B40AC
:104680000827039A1A405B002340002A01D04268A1
:104690005340013F002FF4D10136EAE700250469B9
:1046A000AC420ADD019A4F19161B1A00013C641B2B
:1046B000E400E2400135BA55F1E705B0F0BD002253
:1046C00013B56C468B1ADB7913550132082AF8D1E1
:1046D00069460BF0E3F813BD4A780B7812021A43CF
:1046E0008B781B041A43CB781B0613431BBA036059
:1046F00070470A784B78120213430380704700001A
:1047000030B5040087B00D00064901A80BF0C6FFC4
:1047100022002B0001A90A980BF0C0FF0A9807B0ED
:1047200030BDC046EC350100F0B58DB002901400EC
:104730001E1C002803D1012040420DB0F0BD00290D
:10474000F9DD002AF7DB9142F5DD04AD8B1A280074
:104750000021202203930BF0BDF8311C301C09F01E
:10476000C5F8002816D177007F082049381C09F0C9
:10477000BDF8002805D11D49381C08F0A9F900280A
:1047800008D01B49301C08F0ADF9002808D11F22C1
:10479000184901E01F22184928000BF0CFFF0FE055
:1047A0001649301C08F08AF90028F0D0129B301C02
:1047B000DFB20AF0B9FE00953B000022FFF7A0FF30
:1047C00028000BF0A3FF2C232B540023861C281851
:1047D0004370039BB342AEDD029B320018192900DF
:1047E000A4190BF05BF8601EA7E7C046FFFF7F7FB0
:1047F000F02374C90736010006360100F02374491E
:10480000F0B58DB007001500129E139C002803D14F
:10481000012040420DB0F0BD0029F9DD002AF7DB90
:104820009142F5DD8B1A04A82022002103930BF09E
:1048300051F800222A4B3000210008F019F9002815
:1048400025D00022274B3000210008F0FDF8002879
:104850001DD0149B04AA0092DBB20022300021007C
:10486000FFF74EFF04AC20000BF050FF2C23235425
:104870000023861C20184370039BB342C8DD7819BF
:1048800032002100AD190BF009F8681EC2E73200B2
:104890002300300021000AF089FD002805D01F22E6
:1048A000114904A80BF04AFFDCE701226400640808
:1048B00052420E4B300021000AF078FD00280BD147
:1048C00001220A4B52423000210008F0C7F80028AC
:1048D00002D11F220649E4E71F220649E1E7C0464C
:1048E0007E842EC17E842E41F5350100FFFFEF7FCF
:1048F000F9350100FD350100F7B505000F001E0078
:10490000002814D0002B12D0089B002B0FDB0024B2
:10491000089B9C420DD00999A3000091F3583900DF
:104920002800FFF701FF021E01DB0134F0E701223E
:1049300052421000FEBDF0B5050085B00F001E000C
:10494000002818D0002B16D00A9B002B13DB002464
:104950000A9B9C4211D00B9B0293E300F31818684A
:1049600059680090019139002800FFF749FF021EA5
:1049700001DB0134ECE701225242100005B0F0BD2A
:10498000F8B50C0010491600050004F086FE04F08E
:10499000A7FF070004F0A4FFC01BB04211D2236898
:1049A00020001B6998470028F4D0236820005B6929
:1049B0009847C1B2280004F0DBFE04F091FF070025
:1049C000EDE72800F8BDC0464E450100002310B5B4
:1049D000934205D0D41A013C0C5DC4540133F7E76F
:1049E00010BD10B5002801D005F028F810BD10B595
:1049F000002801D005F01EF810BD0200012310B5FB
:104A0000141AA14204DD147801321B1BDBB2F7E754
:104A1000180010BD642270B5C260AC22920302611E
:104A2000D222002501230400520005718560016037
:104A300043718354A9308D3A2900FF3AFF300AF0C0
:104A400049FF2300D622AD33FF335200A554200086
:104A50009B60DB6070BD007970470000F0B585B0E9
:104A6000029103921F00437C0500432B00D138E2E2
:104A70000023AA7C9A4200D835E22A79002A00D184
:104A800031E26A7C362A00D02DE25C1CE4B2EA18DE
:104A9000DC3229191278DC31097812020A43D5492F
:104AA0008A4200D16BE100DD8AE0D3498A4200D11D
:104AB000F2E124DCD1498A4200D13AE106DC8121CD
:104AC00009018A4200D1DDE100231BE18121490176
:104AD0008A4200D118E140318A42F5D1DC1C023310
:104AE000DBB2EB18DC331B78E4B20093039B002BA2
:104AF00000D11AE12900DC31091918005BE1C04935
:104B00008A4207D04CDCBF498A4200D1C4E1BE4989
:104B10008A42D9D1DC1C0233DBB2EB18DC331B78C0
:104B2000E4B20093109B002B00D1FEE02E00DC3697
:104B300018003119FFF7D0FD109B211D181D7118A9
:104B4000FFF7CAFD21001098083171180830FFF7EF
:104B5000C3FD6B79002B00D0E7E0109B18680AF0CA
:104B6000E3FCAA4AAA4B09F067FE0AF02FFD109B4E
:104B7000186058680AF0D8FCA44AA54B09F05CFEFE
:104B80000AF024FD109B586098680AF0CDFCA04BF9
:104B90009E4A09F051FE0AF019FD109B9860C4E08E
:104BA0009C498A4202D09C498A428DD1DC1C023346
:104BB000DBB2EB18DC331B78E4B200930C9B96E776
:104BC00096498A4200D1F9E05CDC95498A4200D1DD
:104BD0003EE111DC93498A4200D1D0E092498A42F9
:104BE00000D071E7DC1C0233DBB2EB18DC331B783E
:104BF000E4B200930F9B7AE78C498A4203D08C4938
:104C00008A4200D060E7DC1C0233DBB2EB18DC33F5
:104C10001B78E4B20093002F00D186E02E00DC3632
:104C200031193800FFF758FD211D7118381DFFF7A5
:104C300053FD21003800083171180830FFF74CFD92
:104C40006B79002B71D038680AF06EFC794A7A4B88
:104C500009F0F2FD0AF0BAFC386078680AF064FCEA
:104C6000744A754B09F0E8FD0AF0B0FC7860B8684A
:104C70000AF05AFC6F4A704B09F0DEFD0AF0A6FC00
:104C8000B86052E06D498A4208D023DC6C498A4200
:104C900000D193E06B498A4200D015E7DC1C023357
:104CA000DBB2EB18DC331B78E4B200930D9B002BD6
:104CB0003BD02E00DC3618003119FFF70DFD0D9B9F
:104CC000211D7118181DFFF707FD2100083171180B
:104CD0000D986FE05C498A420DD05C498A4200D051
:104CE000F2E6DC1C0233DBB2EB18DC331B78E4B2F7
:104CF0000093129BFBE6DC1C0233DBB2EB18DC33C7
:104D00001B78E4B2009310E0DC1C0233DBB2EB183A
:104D1000DC331B78E4B20093029B002B05D0290002
:104D2000DC3109191800FFF7E4FC009BE418E3B23A
:104D30009FE6DC1C0233DBB2EB18DC331B78E4B2F9
:104D40000093149B002BF0D02B00DC331E19310094
:104D500014980193FFF7C0FC019B211D5918149B67
:104D6000181DFFF7C6FCB379149A9371F379D371C8
:104D7000337A1372737A5372B37A9372D5E7DC1C69
:104D80000233DBB2EB18DC331B78E4B200930A9BEE
:104D9000002BCAD02E00DC3618003119FFF79CFC1E
:104DA0000A9B211D7118181DFFF796FC21000A9817
:104DB000083171180830FFF78FFCB6E7DC1C0233AE
:104DC000DBB2EB18DC331B78E4B200930B9B002BB7
:104DD000ABD02E00DC3618003119FFF77DFC0B9BA1
:104DE000211D7118181DFFF777FC2100083171187B
:104DF0000B98DFE72040000010200000101000009A
:104E0000342000001420000030200000399D52A200
:104E100046DF913F103000001430000020C0000039
:104E2000435000002440000020500000208000007B
:104E300024800000F8C1631ADCA54C4014D00000A7
:104E400024C0000010D0000010E0000020E00000AE
:104E5000DC1C0233DBB2EB18DC331B78E4B20093CA
:104E60000E9B002B00D160E72E00DC3631191800B4
:104E7000FFF725FC21000E98083171180830FFF764
:104E80001EFC52E7DC1C0233DBB2EB18DC331B7870
:104E9000E4B20093139B2AE6DC1C0233DBB2EB186E
:104EA000DC331B78E4B20093119B002B00D13CE76C
:104EB0002E00DC3618003119FFF70EFC119B211D66
:104EC000181D7118FFF708FC21001198083171189E
:104ED0000830FFF701FC210011980C3171180C30DB
:104EE00069E70223037105B0F0BDC04670B5040048
:104EF0000D00160000680222036806495B689847A7
:104F000020683200036829005B689847642004F039
:104F10001DFD70BD68360100FA2310B50B70053316
:104F20004B70437C8B70837CCB7003000431847C9A
:104F30001A1A0133944205DD1A00DB3212780A7026
:104F40000131F4E7C37C0B7010BD0000F8B5847C20
:104F50000500053420000E000AF060FC0700010087
:104F60002800FFF7D9FF3D0029781022300004F017
:104F700073FA01350549300004F018FAEB1BA3421F
:104F8000F2DB300004F01CFAF8BDC046D336010055
:104F9000002010B54B1C5C1AA24204DD1C780133C2
:104FA0000019C0B2F7E743425841C0B210BD00003B
:104FB000F8B5002304000F000371206803681B6923
:104FC0009847002863DD2379002B60D120680368AF
:104FD0005B6998472E4DC3B228780428EDD807F0B6
:104FE00093FB0316232C3C002A4A1178481C1070AE
:104FF0002948415C994202D000232B70137013782A
:10500000012BDAD901232B7000231370D5E7BB42A3
:1050100004D03A00DF21233A0A4203D16374022309
:105020002B70CAE70023FBE7C82BFBD8A374002B27
:1050300001D00323F4E70423F2E716480278511C59
:10504000A218C9B2DC3201701370A37C8B42B4D8B1
:1050500004232B7000230370AFE7A07CE3740530BA
:10506000A0600AF0DBFB060001002000FFF754FF00
:10507000A26831002000FFF78BFF002801D0012338
:105080002371002330002B700AF0D2FB95E7F8BDA6
:105090002D1200202C12002068360100417170474B
:1050A00070B504000D0004F01BFC060020680368C6
:1050B0001B69984700280CD0206803685B699847F3
:1050C00004F00EFC801BA842F0D90249206804F0CD
:1050D00089F970BD6A360100F8B51D000223CF0DB5
:1050E0001F400B02DB0F1F43FEB2002A2AD0CCB2B6
:1050F0002800154904F05AF931000A22280004F06A
:10510000ABF91249002F05D01149012E02D0032E10
:1051100003D11049280004F049F901270E4928005D
:1051200004F044F961100A223940280004F094F98F
:105130000A49280004F03AF9A11039400A2228004F
:1051400004F08EF93000F8BDF0360100FE360100A3
:105150000E3701001F3701002C3701003D370100D9
:10516000F8B514000226CD0D0B020F003540DB0F01
:105170003200002120001D430AF0ACFB012D09D1B3
:1051800023781E43267004231F4202D02278134343
:105190002370F8BD032DF6D1012322781343237029
:1051A000F1E70000F8B505000E00170000242B6899
:1051B00028001B6998470028F9D02B6828005B69F4
:1051C0009847C0B224280ED00A280DD1002C0BDD40
:1051D0003319013B1B780D3B5A425341E41A00231B
:1051E00033552000F8BD00247B1EA34202DD30555C
:1051F0000134DCE70249034804F0F4F80024F0E746
:1052000053360100E4140020F0B5C1B0060004F0EC
:1052100067FB802705007F003A0069463000FFF7F2
:10522000C1FF0D4968460BF0B0FA041E06D069466E
:105230000A4804F0D7F8012041B0F0BD04F050FB5B
:10524000FA23401B9B009842E6D90549034804F025
:10525000C9F82000F0E7C04638360100E414002009
:105260003E36010070B50D002C2104000BF036FA1B
:10527000061E14D001302E210BF030FA00280ED07B
:10528000861B012E0BDDC3782C2B08D0001B0330AE
:10529000A84204DA23185B7823540130F8E72A2166
:1052A00020000BF05FFA00280CD000230134844268
:1052B00003D2227801345340F9E70130024A032136
:1052C0000BF0BAF970BDC0464636010070B5150046
:1052D0008022C0B00E0052006946FFF763FF041E33
:1052E0001FD0114968460BF050FA00280BD10F4926
:1052F00068460BF04AFA002805D10D4968460BF0C4
:1053000044FA002803D021006846FFF7ABFF694646
:10531000300004F067F8002D03D06946054804F01A
:1053200061F840B070BDC046F22701004B36010065
:105330004F360100E414002010B504000068FFF7A8
:1053400050FB200010BD1FB5036842680193002385
:105350000292826803608360436003920A6802607D
:105360000B6043684A6842604B6083688A68826069
:105370008B6001A8FFF7E0FF05B000BD436800683F
:1053800010B51B1AD843884202D2100004F0BBFEAD
:105390000800994200D21800C018834201D90120A8
:1053A000404210BDF8B516000122040017008B68BA
:1053B0000D1D002B0BD030781A7C904204D23A009D
:1053C00098681D000300F4E7D8680022F9E7002A76
:1053D00011D0CA68AA4203D1236065602000F8BDDD
:1053E000280004F02DFE017C327800239142F3D393
:1053F00020606360F2E72800F5E7F7B51F000B1D9A
:1054000004000E0015009A420AD14B69002B38D0D7
:105410000B693A78197C914233D20022226009E06C
:105420003B780193137C019A9A4216D2CB68AB4227
:1054300002D1036063600EE0280004F001FE019ACF
:10544000037C93421DD2C368002B02D123606060AD
:1054500001E0256065602000FEBD019A9A4216D9E0
:105460000B69AB42D9D0280004F0D4FD019A037C2B
:10547000934206D9EB68002B01D12360EAE7206054
:10548000E5E73A0031002000FFF78CFFE3E7056015
:105490000023CFE7F0B5061D05000F003400836838
:1054A00085B0002B08D0197C3A78914202D31C00B9
:1054B0009B68F6E7DB68F4E7A64203D03A78237CE2
:1054C0009A4229D22020019404F0B4FA3B78019A40
:1054D00000936B461B7804000374002343618361CF
:1054E000C36103002900103302A8FFF786FF039A67
:1054F000029F002A14D00120002F06D1964204D02A
:10550000107C009B8342804140423300210004F024
:105510009BFD6B6901336B612000143005B0F0BD59
:1055200020001430FFF708FF200004F087FA3C0049
:10553000F2E770B515000C1A04D001002200280013
:105540000AF0B5F9281970BD4B680A6870B59D1A44
:105550000023040003604360836028000E00FFF70F
:1055600046FA4519A56020606060020003CEFFF78F
:10557000E0FF6060200070BDF8B544680D000E1DAE
:10558000002C27D063684360002B21D0D96800220B
:105590008C421BD1DA609B6893420AD04360436817
:1055A000DA68002A01D04260F9E79B68002B00D03E
:1055B0004360270014373800FFF7BEFE3100380083
:1055C0002B782374FFF7C0FF2000F8BD9A60F0E746
:1055D0000360EEE7202004F02DFA2B78040003741A
:1055E00031001430EEE7F0B589B0019283680269AA
:1055F00004000E00059306920790002B04D00021B2
:10560000596093688B4200D006930023271DA36046
:10561000E76027616361019B9E4224D033003A001A
:10562000210003A8FFF7E9FE049B0093002B18D08C
:10563000039B0125002B07D1009B9F4204D03578A6
:105640001B7C9D42AD416D42310005A8FFF794FFE0
:105650003B000100009A280004F0F6FC6369013366
:1056600063611036D7E705990798FDF7ABFB09B0E2
:10567000F0BD0023F7B504000360436083601000B1
:105680000E008F181500FFF7B2F9451902002060CF
:10569000A56039003000FFF74CFF60602000FEBDC0
:1056A000A222F3B5C368FFB0DCB21D12974B5200C3
:1056B0005093974B06005193964B4620529302AB62
:1056C000991808230B70337C353AFF3AFF3002A952
:1056D000134309180B70013002A909184820EDB2D4
:1056E0000D70FF3002A909180C7003AB50A92CA84B
:1056F000FFF7BFFFA4200023400002A909180B7088
:1057000055A82CA9FFF720FF0C2204AB82492FA833
:105710000192FFF7AEFFAC200123400002A9091857
:105720000B7059A82FA9FFF70FFF8123822014A91E
:105730009B01800132AF0B80888005AB08223800C6
:10574000CC70CC718D708D71FFF793FF4A2302AA44
:10575000FF339B18022232A9DA775DA8FFF7F4FE27
:10576000832304270EA99B010B803A0006AB35A8C2
:10577000CC708D70FFF77DFF032260AB1A7035A9E6
:1057800061A8FFF7E1FE654B0FA90B803A0007AB5C
:1057900038A8CC708D70FFF76CFF64AB1F7038A910
:1057A00065A8FFF7D1FE7023102210A90B70337C7F
:1057B0003BA813434B7001235B424B803A0008AB7C
:1057C000FFF757FF052268AB1A703BA969A8FFF7DE
:1057D000BBFE202311A90B70327C103313434B7096
:1057E0003A0009AB3EA8CC708D70FFF742FF06224D
:1057F0006CAB1A703EA96DA8FFF7A6FE20231022FD
:1058000012A90B70337C41A813434B703A000AABCA
:10581000CC708D70FFF72DFF072270AB1A7041A975
:1058200071A8FFF791FE5020432244A90870337CF1
:1058300008711A434A70D02230380A72C03A1843AD
:10584000134348714B72019A0BAB47A8CC70CC71D3
:10585000CC728D708D718D72FFF70BFF082274ABC7
:105860001A7047A975A8FFF76FFE822013A980015F
:1058700008800CAB3A004AA8CC708D70FFF7F9FE97
:10588000092278AB1A704AA979A8FFF75DFE3A00A1
:105890000DAB23494DA8FFF7ECFE0A237CAC4DA9C4
:1058A00023707DA8FFF750FE3000A930FF3080AA9A
:1058B00054A9FFF798FE201DFFF73EFD103C50ABAA
:1058C000A342F8D14DA8FFF737FD4AA8FFF734FDF2
:1058D00047A8FFF731FD41A8FFF72EFD3EA8FFF7CF
:1058E0002BFD3BA8FFF728FD38A8FFF725FD35A8BD
:1058F000FFF722FD32A8FFF71FFD2FA8FFF71CFDC1
:105900002CA8FFF719FD7FB0F3BDC0461020FFFFA4
:105910001060FFFFE020FFFF26360100301000007E
:1059200032360100F7B504000E00009201930527FE
:10593000FFF7B6FE009A31002000FFF7D7FA019971
:105940002000FFF735FB2579012D0CD12749284888
:1059500003F048FD019B412B03D1FA20C00003F066
:10596000F5FF2800FEBD206803681B6998470028E2
:1059700004D0206803685B699847F4E76420013F1E
:1059800003F0E4FF002FD5D1194C1A49200003F091
:1059900029FD1949200003F009FD1022FA212000F9
:1059A00003F05AFD154F2000390003F0FFFC1022D0
:1059B000FF21200003F050FD3900200003F0F6FC29
:1059C0003500009AAB1B9A420ADD2978102220008C
:1059D00003F042FD3900200003F0E8FC0135F0E758
:1059E000200003F0EDFC0025BBE7C0464A3701006C
:1059F000E41400205737010061370100D33601005D
:105A000013B504000B490C4803F0D0FC03220B49EA
:105A100001A809F043FF3123032201A92000FFF769
:105A200081FFD22300225B00002800D10122E25432
:105A300016BDC04698360100E4140020113601005E
:105A400037B5032405000849084803F0AFFC0849AE
:105A50002200091901A809F021FF280023002200D3
:105A600001A9FFF75FFF37BDDB370100E414002019
:105A70001136010013B504000E490F4803F096FCDF
:105A80000E490322093101A809F008FF0A2120006C
:105A9000FFF706FB1123032201A92000FFF742FFB5
:105AA000D2235B00002802D00122E25416BDE0544C
:105AB000FCE7C04668370100E414002011360100FD
:105AC00037B5032405000849084803F06FFC08496E
:105AD00022000C3101A809F0E1FE28004123220038
:105AE00001A9FFF71FFF37BDD2370100E4140020E2
:105AF00011360100F0B58BB00393109B05AC0493F5
:105B00001D4B05002380002301910292A370032204
:105B100001A9E718CE18B05CB91A8871013AFAD217
:105B20000433102BF3D113212000FEF766FF134E30
:105B3000E0741349300003F039FC2100ED231422F6
:105B40002800FFF7EFFEF6236A465B001380002370
:105B5000032193706846FEF750FF6B460949D870E1
:105B6000300003F023FCED23042269462800FFF7F0
:105B7000D9FE0BB0F0BDC046EC110000E4140020CB
:105B800098370100A93701007FB504001149124878
:105B900016001D0003F00AFC6B4609220021981C28
:105BA00009F098FE6A460D4B0C2113800123D37037
:105BB000DB18537168466133D671D5721373FEF7E3
:105BC0001CFF6B460D2218736946AD232000FFF7BA
:105BD000A9FE7FBDBA370100E4140020AC0A000022
:105BE000F0B53A4985B003AD060003221231280012
:105BF00009F054FE02212800FEF7FFFE344CA87085
:105C00003449200003F0D2FB290003228D23300009
:105C1000FFF788FEB37C05331800019309F0FEFD01
:105C2000050001003000FFF777F92F0039781022C6
:105C3000200003F011FC284E2000310003F0B6FBD9
:105C4000019A01377B1B9A42F0DC200003F0B8FB7D
:105C50002249200003F0AAFB297A0A22200003F03F
:105C6000FBFB3100200003F0A1FB697A01291CD164
:105C70001B49200003F09AFB0A22A97A200003F0B6
:105C8000EBFB3100200003F091FBE97A0A222000AF
:105C900003F0E2FBEB7A012B13D0002B0BD0022B8D
:105CA00011D0200003F08CFB09E00A22200003F051
:105CB000D3FB3100DDE70B49200003F093FB05B077
:105CC000F0BD0949F8E70949F6E7C0461136010079
:105CD000E4140020AD360100D3360100B9360100CE
:105CE000C7360100D5360100DE360100E736010077
:105CF00013B56A460A4B04001380C03BFF3B137187
:105D0000D1700B12684604219370FEF776FE6B4645
:105D100005221871694623232000FFF703FE16BDF4
:105D20002202000010B5C160FFF7BAFC10BD10B52B
:105D30000023002900D104230374FFF7B1FC10BD38
:105D4000F7B504000F0001920121114AFFF716FB7D
:105D500023680090FE1AFEF74AFE86190500002E01
:105D600002D0019B1B78337039002A002068FFF7AE
:105D7000E0FB6168421C3800FFF7DBFB060020688F
:105D8000FEF72FFE009B2560ED186660A560F7BD4D
:105D900002380100F0B51700022285B01D4901AE9E
:105DA00033000400029103920025FFF762FC3A6879
:105DB0007B689B1A9D4211D26168A368521999426F
:105DC00008D0002901D013780B7063680133636039
:105DD0000135ECE72000FFF7B3FFF9E722685370C5
:105DE000236865681800E91AFEF707FEA36830709B
:105DF0009D4208D0002D00D0287063680133636095
:105E0000200005B0F0BD320029002000FFF798FF08
:105E1000F6E7C0463636010010B5040088B005A884
:105E2000FFF792FB05AA210002A8FFF7B3FF05A820
:105E3000FFF782FA09490A4803F0B8FA039B029A6D
:105E400001939A1AD2B2C12302992000FFF76AFD8A
:105E500002A8FFF771FA08B010BDC04682370100F2
:105E6000E4140020F0B585B004000E000192029306
:105E7000934220D09B1A009345688368009A5B1B6D
:105E8000934231D36F1ABA4217D2AF1A29002A00AF
:105E90003800FFF74EFB6168009B8C4663446360EB
:105EA000BA1B03D0A81A310009F001FD3200029993
:105EB0000198FFF73EFB05B0F0BD019B2A00DB19FE
:105EC000029918000393FFF734FB009B2900DA1BAB
:105ED000636830009A186260FFF72BFB636832003A
:105EE000DF1967600399E3E70F4A0099FFF746FA65
:105EF0000700FEF77CFD3100050002002068FFF777
:105F000018FB029902000198FFF713FB6168020079
:105F10003000FFF70EFB06002068FEF762FD2560EB
:105F2000ED196660A560C6E7EA3701000023F0B509
:105F300016000360436083605368126885B09D1A41
:105F40004B680A6804009B1AEB180F000393002BA0
:105F500010D01800FEF74BFD0021050002000800DC
:105F6000FFF7E7FA2068FEF73CFD039B25606560BC
:105F7000ED18A56069460CCF00200870616820000C
:105F8000FFF770FF0CCE69460020087061682000A2
:105F9000FFF768FF200005B0F0BD30B58BB06B4651
:105FA0000500991C0023A935FF35040028000B705B
:105FB000FFF770FA010004A8FFF7C6FA6B46D91C78
:105FC000022328000B70FFF765FA010007A8FFF70E
:105FD000BBFA07AA04A901A8FFF7A8FF07A8FFF7C3
:105FE000ABF904A8FFF7A8F901A907A8FFF7ACFAD5
:105FF00007A92000FFF710FF07A8FFF79DF901A8E8
:10600000FFF79AF90BB030BDF0B58FB06B460600C4
:10601000DD1D0023A936FF360700290030002B7054
:10602000FFF738FA010008A8FFF78EFA022305AC43
:10603000210030002370FFF72DFA01000BA8FFF7B5
:1060400083FA0BAA08A902A8FFF770FF0BA8FFF7B5
:1060500073F908A8FFF770F902A92000FFF774FA96
:106060000323290030002B70FFF714FA010008A861
:10607000FFF76AFA08AA21000BA8FFF757FF0BA940
:1060800002A8FFF760F90BA8FFF756F908A8FFF779
:1060900053F92000FFF750F902A92000FFF754FA46
:1060A0000623290030002B70FFF7F4F9010008A83F
:1060B000FFF74AFA08AA21000BA8FFF737FF0BA940
:1060C00002A8FFF740F90BA8FFF736F908A8FFF779
:1060D00033F92000FFF730F902A90BA8FFF734FAD3
:1060E0000BA93800FFF798FE0BA8FFF725F902A8C7
:1060F000FFF722F90FB0F0BD30B58BB06B4605004D
:10610000991C0123A935FF35040028000B70FFF707
:10611000C1F9010004A8FFF717FA6B46D91C052343
:1061200028000B70FFF7B6F9010007A8FFF70CFA7B
:1061300007AA04A901A8FFF7F9FE07A8FFF7FCF8D2
:1061400004A8FFF7F9F801A907A8FFF7FDF907A9C7
:106150002000FFF761FE07A8FFF7EEF801A8FFF7A0
:10616000EBF80BB030BDF0B58FB06B460600DD1D0F
:106170000023A936FF360700290030002B70FFF7F7
:1061800089F9010008A8FFF7DFF9082305AC210011
:1061900030002370FFF77EF901000BA8FFF7D4F958
:1061A0000BAA08A902A8FFF7C1FE0BA8FFF7C4F8C5
:1061B00008A8FFF7C1F802A92000FFF7C5F90623D8
:1061C000290030002B70FFF765F9010008A8FFF7E0
:1061D000BBF908AA21000BA8FFF7A8FE0BA902A88B
:1061E000FFF7B1F80BA8FFF7A7F808A8FFF7A4F886
:1061F0002000FFF7A1F802A90BA8FFF7A5F90BA94A
:106200003800FFF709FE0BA8FFF796F802A8FFF782
:1062100093F80FB0F0BDF0B58FB06B460600DD1DF2
:106220000023A936FF360700290030002B70FFF746
:1062300031F9010008A8FFF787F9082305AC210010
:1062400030002370FFF726F901000BA8FFF77CF957
:106250000BAA08A902A8FFF769FE0BA8FFF76CF8C4
:1062600008A8FFF769F802A92000FFF76DF90723D6
:10627000290030002B70FFF70DF9010008A8FFF787
:1062800063F908AA21000BA8FFF750FE0BA902A88A
:10629000FFF759F80BA8FFF74FF808A8FFF74CF8DD
:1062A0002000FFF749F802A92000FFF74DF9092364
:1062B000290030002B70FFF7EDF8010008A8FFF768
:1062C00043F908AA21000BA8FFF730FE0BA902A88A
:1062D000FFF739F80BA8FFF72FF808A8FFF72CF8FD
:1062E0002000FFF729F802A90BA8FFF72DF90BA949
:1062F0003800FFF791FD0BA8FFF71EF802A8FFF783
:106300001BF80FB0F0BDF0B58FB06B460600DD1D79
:106310000023A936FF360700290030002B70FFF755
:10632000B9F8010008A8FFF70FF9082305AC210010
:1063300030002370FFF7AEF801000BA8FFF704F957
:106340000BAA08A902A8FFF7F1FD0BA8FEF7F4FFBE
:1063500008A8FEF7F1FF02A92000FFF7F5F80623D1
:10636000290030002B70FFF795F8010008A8FFF70F
:10637000EBF808AA21000BA8FFF7D8FD0BA902A88B
:10638000FEF7E1FF0BA8FEF7D7FF08A8FEF7D4FF42
:106390002000FEF7D1FF02A92000FFF7D5F80A235D
:1063A000290030002B70FFF775F8010008A8FFF7EF
:1063B000CBF808AA21000BA8FFF7B8FD0BA902A88B
:1063C000FEF7C1FF0BA8FEF7B7FF08A8FEF7B4FF62
:1063D0002000FEF7B1FF02A90BA8FFF7B5F80BA943
:1063E0003800FFF719FD0BA8FEF7A6FF02A8FEF77D
:1063F000A3FF0FB0F0BD0000836810B50468032B45
:106400000FD1C26843689B1800228260013243604A
:10641000C260022B05DD49210E4B0F4A0F4809F0DF
:106420007FF98268022A03DD0D4B0B4A4C21F5E708
:10643000C368012B03D00B4B074A4D21EEE7531CD9
:10644000836003235343426809689B189B001951DA
:1064500010BDC0461C380100373901006B380100FF
:10646000CA3801002139010070B54568C468E9687F
:10647000606806F045FFA969061CA06806F040FFA9
:10648000011C301C06F0CAFB2968061C206806F0B7
:1064900037FF011C301C06F0C1FB70BD002370B536
:1064A000040003604360836010200D0003F0C2FA13
:1064B00003001033A36063602B68206003606B6887
:1064C0004360AB688360EB68C360200070BD000070
:1064D0000300F7B504000C330193206809F024F899
:1064E0001B4A1C4B07F082FA194A1B4B03F08AFE29
:1064F000174A184B08F012FC09F068F8051C09F05F
:1065000013F8134A134B06000F0006F0B1FA104AB5
:10651000002808D0104B3000390008F0FFFB09F0CC
:1065200055F8206007E00D4B3000390006F096FA70
:10653000002805D12560019B04349C42CDD1F7BDD4
:10654000034A054B3000390007F050FAE7E7C04630
:10655000182D4454FB210940FB211940FB2109C09F
:10656000F0B585B00290181C1C1C0F1C039208F09B
:10657000DBFF354A354B08F05FF909F027F8051CB9
:1065800003F002FE3249061C06F0BAFE311C06F08A
:10659000B7FE011CFE20800506F0E4FF061C08F093
:1065A000C3FF00222B4B03F099FE00900191301C99
:1065B00004F04EF8061C281C03F0A8FD311C051C35
:1065C000254806F0C5FC0B9906F028FB0A99061C25
:1065D000381C06F0C7FF08F0A7FF1B4A1B4B08F04A
:1065E0002BF908F0F3FF011C301C06F089FE291C72
:1065F00006F086FE0C9B19491860E020009A019B6A
:10660000000607F00FFD08F0E1FF0B9906F006FB0E
:10661000211C051C029806F0A5FF08F085FF0A4A18
:106620000A4B08F009F908F0D1FF011C281C06F0FC
:1066300067FE0D9B0B991860039806F093FF0E9B65
:10664000186005B0F0BDC046399D52A246DF913FAB
:10665000875CDB3B0000F83F32A5C24AF32A584171
:10666000826870B50468012A0ED1C5684368C260AB
:106670005B19002543608560032B05DD49210E4B26
:106680000E4A0F4809F04CF88368002B03DD0D4BD0
:106690000A4A4C21F5E7C268012A03D00A4B074A8F
:1066A0004D21EEE75A1C82600A6841689B005B1826
:1066B0009B001A5170BDC0461C380100A83D010066
:1066C0006B380100CA38010021390100F0B50C0017
:1066D0008BB000900969206806F0A0FA216A06F0E4
:1066E0009DFA0021051C06F0FDF9002800D18BE081
:1066F000FE21281C890506F091FA03F0A9FFFC2170
:10670000890506F0FDFD0390039D6249281C06F0F3
:10671000D5F9002806D1FE21281C890506F0E2F9EA
:10672000002813D05B49281C059106F0C7F905AD78
:10673000002800D103ADFE2128688905069106F0E6
:10674000D1F9002800D006AD2B680393039808F018
:10675000EBFE06000F006069E16906F003FF08F038
:10676000E3FE00224C4B08F067F832003B0007F0D4
:1067700059FC08F02BFFA168051CA06906F0F2FE89
:1067800008F0D2FE0022444B08F056F832003B00DD
:1067900007F048FC08F01AFFE1680490606806F012
:1067A000E1FE08F0C1FE00223B4B08F045F8320044
:1067B0003B0007F037FC08F009FF009B05900693AB
:1067C00000230793013308930993009B04A91D60DC
:1067D00006A8FFF745FF05A9FFF742FF03A9FFF74A
:1067E0003FFF079B0093099B0193019A009B9446EE
:1067F0006344042B02D1089B012B49D0274B284A24
:106800007C21284808F08CFFE169606906F0AAFE47
:10681000A168071CA06906F0A5FEE168061C606877
:1068200006F0A0FE391C0190381C06F069FD311CF1
:10683000071C301C06F064FD011C381C06F0EEF944
:106840000199061C081C06F05BFD011C301C06F0BB
:10685000E5F903F0FDFE291C061C134806F082FE34
:1068600003F0F6FE051C301C08F05EFE00220F4B04
:1068700007F0E2FF0600281C0F0008F055FE02009A
:106880000B003000390007F0CDFB08F09FFE3AE71F
:106890000BB0F0BD000080BF0000D03FFB3901000D
:1068A000433D01006B380100000040400000E03F24
:1068B00003005A68D96810B552180068032A02D13B
:1068C0009B68032B05D0034B034A7C21034808F047
:1068D00027FF10BDFB390100DE3C01006B380100D1
:1068E00010B5030705D0034B034A6D21034808F098
:1068F00017FF10BD943B010023400100833C0100C1
:106900009300CB1810B5036000230361013381604D
:10691000C2604361022A05D9034B044A7A21044824
:1069200008F0FEFE10BDC046993A01006C3E010021
:10693000403B010010B50324230053439B00CB18B8
:10694000036000238160C36002614461022A05D9AB
:10695000034B044A7A21044808F0E2FE10BDC04609
:10696000993A0100483F0100403B010070B5032304
:10697000140063430268466898B015685B189B0072
:106980000A000CA83100ED18FFF7BAFF0CA9182275
:1069900012A808F083FF2200716A06A8FFF7CAFF59
:1069A000129B01A80293069B0493FFF75DFD2860EC
:1069B00018B070BD002210B504001100FFF7D6FF1B
:1069C000200000220121FFF7D1FF20000022022138
:1069D000FFF7CCFF200001220021FFF7C7FF0122B3
:1069E00020001100FFF7C2FF200001220221FFF763
:1069F000BDFF200002220021FFF7B8FF2000022285
:106A00000121FFF7B3FF022220001100FFF7AEFFC4
:106A100010BD70B50323140063430268466898B044
:106A200015685B189B000A000CA83168ED18FFF789
:106A300067FF0CA9182212A808F030FF2200716825
:106A400006A8FFF777FF129B01A80293069B049309
:106A5000FFF70AFD286018B070BD10B504000022D1
:106A60000121FFF7D6FF200000220221FFF7D1FF0E
:106A7000200001220021FFF7CCFF0122200011009D
:106A8000FFF7C7FF200001220221FFF7C2FF20000D
:106A900002220021FFF7BDFF200002220121FFF7A3
:106AA000B8FF022220001100FFF7B3FF10BD10B5A0
:106AB0004A688CB008920A9203220B9202AA0392AF
:106AC00000220C6807AB02900493069001AB110002
:106AD00003A8059307940994FFF79BFF03A8FFF70A
:106AE000BCFF0CB010BDF0B50F0093B005AC0500B5
:106AF00020001600FFF7DBFFBB6801A86362E362BA
:106B0000032323636B46A4620095019302940396CA
:106B10000495FFF74FFF13B0F0BDF0B5B3B002908E
:106B20000193FE200EAB29930023002480050D0065
:106B30002A930E90013306A929A816002B932C93B3
:106B40000694FFF759FC07A90794FFF755FC08A91D
:106B50000894FFF751FC0700286803F0D7FA09A949
:106B600009903800FFF748FC80232A681B060700BD
:106B7000D01803F009FB0AA90A903800FFF73CFC83
:106B80000BA90B94FFF738FC80232A681B0607002B
:106B9000D01803F0F9FA80231B06C01817A9179024
:106BA0003800FFF729FC0700286803F0AFFA20AD92
:106BB000290020903800FFF71FFC29A8FFF778FE76
:106BC000306803F0A3FA17AA0021299201222A9122
:106BD000179005A929A82B922C920594FFF70CFC7D
:106BE0008023070030681B06C01803F0CDFA80230D
:106BF0001B06C01806903800FE2706A9FFF7FCFB0D
:106C000007A90794BF05FFF7F7FB08A90897FFF747
:106C1000F3FB09A90994FFF7EFFB80230700306815
:106C20001B06C01803F0B0FA0A900AA80100380049
:106C3000FFF7E2FB0BA90B94FFF7DEFB07003068C0
:106C400003F064FA290020903800FFF7D5FB29A84B
:106C5000FFF72EFE019E802736683F06301C03F0AA
:106C600055FA012200212090F0192B922C922A91A2
:106C7000299503F089FA04A9049029A8FFF7BCFB21
:106C800005A90594FFF7B8FBBC46019B06001B68ED
:106C900003936344180003F077FAC01906A906901D
:106CA0003000FFF7A9FB019B0600186803F02EFADD
:106CB000FE27079007A93000FFF79EFB08A908945C
:106CC000FFF79AFB09A90994FFF796FB0AA90A9412
:106CD000BF05FFF791FB0BA90B97FFF78DFB29A8C9
:106CE000FFF7E6FD0EAB0C930AAA17AB0BA929A878
:106CF0000D930B95FFF7F7FE29A90298FFF7E6FC25
:106D000033B0F0BDF0B50F0016001D00040087B0D1
:106D1000FFF7E6FD3B6803A80393336804932B68F1
:106D200001930593FFF7D4FB200005AB04AA03A948
:106D3000FFF7F3FE200007B0F0BD0020704710B54C
:106D400003689C6B0123A04710BD8C2300229B008D
:106D5000C154103BC3185A609A60DA6001238375EE
:106D6000704710B5036801211B6B984710BDF8B53B
:106D700005000E0017000024BC4208D02B68315DCE
:106D80001B6828009847002801D00134F4E7200050
:106D9000F8BDFC30406A704770478E239B00C1509D
:106DA00070478D239B00C15070470300FC335A6A23
:106DB000002A03D01B6AC018007E704701204042A1
:106DC000FBE7000070B5060018250C49006900F0CB
:106DD00039FE306900F077FC2B000821307D084C2B
:106DE0004343E318595603F019F80821707D4543D1
:106DF0006419615603F012F870BDC046A086010008
:106E00004041010070B504000D00006900F070FC05
:106E10002900206900F016FE206900F054FC70BDC6
:106E200010B5006900F064FC10BD0000F7B50193D7
:106E3000FA238026002504009B008360134B760014
:106E400008330F00456029000092036032001830BB
:106E500008F040FD23002000FC332530DD613200C6
:106E60001D6229005D62FF3008F034FD88239B001D
:106E7000E3185D609D60DD606B461B7827612375BC
:106E80006B461B79A57520006375FEBDB0400100FF
:106E900070B506001825006900F0AFFD306900F0FC
:106EA00012FC2B000821307D064C4343E318595651
:106EB00002F0B4FF0821707D45436419615602F069
:106EC000ADFF70BD4041010010B50022FFF7E0FFAB
:106ED00010BD0300802210B5FC33DC6852009442E0
:106EE00008D05A6881545A680132D2B25A60DA68BE
:106EF0000132DA6010BDF7B50400171E019302D10C
:106F000000252800FEBD03000022FC33DA611A626E
:106F10005A620069013200F01DFC061EF0D0230009
:106F200020691833009300F0A8FC01000098FFF7D7
:106F3000D0FF01252069BD4214D000F07CFC002860
:106F40000FD0206900F0E6FB0221206900F0ECFB85
:106F5000206900F092FC01000098FFF7BAFF0135AC
:106F6000E8E70600206900F0CDFB019B002B06D06E
:106F7000002E06D00321206900F0D6FBC1E7002EC9
:106F8000BFD1013DBDE7002310B5827D9A420CD0F0
:106F9000882292008218D46880225200944204D041
:106FA0002530FF30FFF795FF0123180010BD0300C7
:106FB000FC33DA68002A09D09A68805C9A6801324A
:106FC000D2B29A60DA68013ADA6070470120404232
:106FD000FBE700228C2370B59B00827504000E0035
:106FE000C15C006900F0B6FB002806D103212069CE
:106FF00000F09AFB0225280070BD88239B00E3184F
:10700000DD68002D11D020002530FF302569FFF705
:10701000CEFFC1B2280000F0DFFB0028EDD1032134
:10702000206900F081FB0325E5E7002EE3D0032172
:10703000206900F079FBDEE710B51830FFF7B7FFE5
:1070400010BD70B50400006900F0ECFB002815D0FD
:10705000206900F0FEFB002811D0206900F05AFBE7
:107060000321206900F060FB8E239B00E558002D72
:1070700035D10023FC34E3612362636270BD206973
:1070800000F0F1FB002809D0206900F0E7FB0028A0
:1070900004D0206900F0ECFB0028DED0206900F06D
:1070A000E2FB002821D1206900F0CEFB0028E5D0CA
:1070B000206900F0DDFB002833D088239B00E31813
:1070C000DB68FF21002B05D020002530FF30FFF7C3
:1070D0006EFFC1B2206900F097FBA075CEE7236870
:1070E00020001B699847A847C3E7206900F012FBFE
:1070F0002069032100F018FB206900F0B9FB00288B
:10710000BCD0882300229B00E3185A609A60DA60A2
:107110000123A3758D239B00E3589342AED098477B
:10712000ACE72300FC335A6A802320695B009A4253
:1071300006D100F0E7FA0321206900F0F5FA9DE797
:1071400000F09BFB010020001830FFF7C2FE206911
:1071500000F0E0FAEFE7000010B50248FFF771FF1A
:1071600010BDC0463012002010B513231222024970
:107170000248FFF75BFE10BDD4140020301200203F
:1071800070B506000C008D18AC4207D0336821782A
:107190009B683000984720700134F5E770BD704758
:1071A000704710B50400406800F04EFA00232376C3
:1071B00010BD10B5406800F06CFA10BDF8B50500C0
:1071C00040680C0000F060FA2B68E7B2260A9B6862
:1071D000012810D139002800FF2798472B68BC43AD
:1071E00004439B6831002800984703022000384080
:1071F000184380B2F8BD310028009847FF262B685D
:107200000002344004439B68390028009847B44387
:107210002043EEE710B5040002F010FC200010BD82
:1072200010B54B1C0BD0102909D0EFF3108472B6A7
:10723000102905DD02234376002C00D162B610BD73
:107240000123427E1A43427618224A430449891890
:1072500016228A569340C2691343C361ECE7C046C5
:10726000404101004B1C17D0102915D0437E9B07CD
:1072700012D4EFF3108272B618234B430749C91892
:107280000123897D49B28B40C1699943C16100D115
:107290004176002A00D162B67047C04640410100E5
:1072A000437E002B05D09A0704D5837E002B00D0A7
:1072B00062B67047DB07FCD5C369024A9BB2D36054
:1072C000F7E7C04600180040037E002B04D1437648
:1072D0008376C36101330376704700007FB503698D
:1072E00002AE04000D00029172608B4203D1828ACB
:1072F000B3889A4226D0200006223100103008F0D0
:10730000CDFA606800F0B7F97379E17A013B581E55
:107310008341227B00936068002300F049FB3379AE
:107320000021013BDBB2022B01D8074AD15C074B9D
:107330002A009D4200D91A00606800F06DF960686B
:1073400000F08FF97FBDC04600410100001BB7006F
:1073500070B518260400FFF7B7FF33000821207A24
:107360000D4D4343EB18595602F058FD33000821E8
:10737000A07A4343EB18595602F050FD0821607A79
:107380004643AD19695602F049FD044B200006CB77
:10739000FFF7A4FF70BDC04640410100AC140020BF
:1073A00007B5437E00910192002B07D09A070AD5BA
:1073B000EFF310835A425341837672B60099019AD3
:1073C000FFF78CFF07BDDB07F8D5C369014A9BB205
:1073D0009360F3E700180040F7B500240125194B2E
:1073E000194A5D711A601C71184B194808330193D2
:1073F0000360184B184F4360184B194E03810D233F
:107400003A00310045750461047583720A3B0476C5
:10741000C472037302F0B0FD1248134B019A43602B
:10742000124B4575038119233100026004613A0053
:1074300004758372163B05730476C37202F09CFDDB
:10744000F7BDC046AC14002000093D000441010016
:107450006C140020BC140020000000200C0B000065
:10746000A17100008C140020C41400201716000025
:1074700010B501211A2002F059FC01211A2002F056
:10748000A1FC01211B2002F051FC00211B2002F075
:1074900099FC10BD10B50C490C4800F02DF80C49B2
:1074A0000C4800F029F80C490C4800F025F80C496C
:1074B0000C4800F021F80C490C4800F01DF80C496C
:1074C0000C4800F019F810BD00080042B414002068
:1074D000000C0042BC14002000100042C414002024
:1074E00000140042CC14002000180042D4140020E4
:1074F000001C0042DC14002000230371016070476F
:107500009446F0B59E1E721E96416246056892072B
:107510002F6836063A4332432A60072505AC2478A3
:107520000068A4012940214342680024022B00D0B6
:107530005C03114321434160F0BD30B5C0250368B1
:10754000AD031C6812052A402243C0240904A4028A
:1075500021401143196003685A6814435C6030BDD0
:107560000123026811680B43136003681A68D2078D
:10757000FCD4DA69D207F9D4704702230268116893
:107580000B4313600268D3699B07FCD47047026801
:10759000137E9B0702D40379002BF9D100230371DA
:1075A0007047002203685A8370470368187E4007BB
:1075B000C00F70470368187EC009704780230268B7
:1075C0005B42117E0B43137670470368588B80072C
:1075D000C00F704702230268518B0B4353837047DF
:1075E0000368187EC007C00F70470368188DC0B2CB
:1075F000704703681A7ED207FCD589B2198501232A
:10760000037118007047012203689A7570470122C0
:1076100003681A757047000070B5012604684B08AE
:1076200033403140256809075B070B432B43236038
:1076300004685100034805F07BF80138C0B220739C
:1076400070BDC046006CDC020123026811680B4368
:10765000136003681A68D207FCD4DA69D207F9D438
:1076600070470223026811680B4313600268D369F4
:107670009B07FCD470470368DA699207FCD40221A7
:107680001A688A431A607047036818684000C00F80
:1076900070470268936A5B0A5B0219439162036850
:1076A0001A7E5207FCD5986AC0B27047012302685F
:1076B00011680B43136003681A68D207FCD4DA69B7
:1076C000D207F9D470470223026811680B43136094
:1076D0000368DA699207FCD430215A8B8A4311007F
:1076E00010220A435A830268D3695B07FCD47047AF
:1076F0000221026813688B4313600268D3699B07F9
:10770000FCD4704780230268DB02116851680B4388
:1077100053607047036803491A685A680A405A6000
:107720007047C046FFFFFBFF032230B503681140DE
:107730001C68074D5A6809042A40E4061143640F87
:107740005960052C03D10268D3695B07FCD430BDB6
:10775000FFFFFCFF70B5056804006B8B9B069B0F59
:10776000022B0DD06B8B00209B069B0F032B32D07E
:107770006B8B9B0704D56B8B9B069B0F012B2AD130
:107780006B6A49001143DB0AC9B2DB020B436B622F
:107790002368002A13D11A7ED207FCD55B8B9B0687
:1077A0009B0F022B04D0490800222000FFF7D2FFD4
:1077B0002368588B4007C30F012058400BE0187E08
:1077C0008007C00FF4D11A7ED207F8D5C0225968BD
:1077D00092020A435A6070BD036828331970026828
:1077E000107EC007C30F508B002B06D1C007C00FFF
:1077F00008D1538B9B07F3D570474007C30F012077
:107800005840F9E71800F7E7036828331970036850
:1078100000201A7E520704D5588B01234007C00F61
:107820005840704703681868C006400F0438434248
:107830005841C0B270470368588B8006800F0238E9
:1078400043425841C0B270470368187E4007C00FDA
:1078500070470368187EC007C00F70470368588BD5
:10786000C006C00F70470368187E8007C00F7047BE
:107870000368588B0007C00F704703681A68D20668
:10788000520F052A05D11A7E920702D41A7ED2071A
:10789000F9D528331878C0B2704700000368214A30
:1078A00030B593422FD0204A93422FD01F4A9342A3
:1078B0002FD01F4A93422FD01E4A93422FD01E4AE8
:1078C00093421FD10E2319220121032599401B4801
:1078D000C024016099082B40AB40FC359D408900D5
:1078E0000918A4000859A843C0259D402B00034354
:1078F0000B518023DB011A43114B5A805A7852B244
:10790000002AFBDB30BD09231422DDE70A23152200
:10791000DAE70B231622D7E70C231722D4E70D232F
:107920001822D1E700080042000C0042001000427B
:107930000014004200180042001C004200E100E078
:10794000000C0040F8B504000F0016001D00FFF702
:10795000A5FF2000FFF704FE1C21BB000B407107B0
:107960002268090C0B431360842322689375012F4E
:107970001AD11021012E00D008390C4B6943186828
:10798000C00004F0D5FE0722216802408B89520313
:10799000DB04DB0C13438B81226803049089DB0C2E
:1079A000400B400318439081F8BDC04618000020EA
:1079B000F7B50600019308AB1F780D001400FFF720
:1079C00043FE3000FFF76AFFC022240592031440F3
:1079D000BA070C2717433C43C0270722BF022D04D8
:1079E00033683D4025431D60019B316813401A00F8
:1079F00080239B0213434B60F7BD70B504000D005C
:107A00001600FFF74BFF2000FFF750FE1C222168F5
:107A10006D000B6893431A0010231343FF220B6081
:107A2000236815405D62002E04D001232268516A4C
:107A30000B4353620723226893752268D3695B075F
:107A4000FCD470BDF8B504000F00FFF727FF20003D
:107A5000FFF72CFE1422236879001A600C4B25686E
:107A60001E68300004F064FE0A490400300004F08F
:107A70005FFE7D23FA215843C90004F059FEFF231D
:107A8000241AE868053C1C4098430443EC60F8BDA8
:107A90001800002040420F000020704770B50F26EC
:107AA000CB1D013902003240D5B22C000009303420
:107AB000092A00DD07341C70013B8B42F2D170BDF6
:107AC00010B50C000B4B1868FFF7E8FF21000A4BBC
:107AD00008311868FFF7E2FF2100084B10311868E1
